{
  "address": "0x4366D48DAe77025ec49202a0bBD5BC4DC14a27a3",
  "abi": [
    {
      "anonymous": false,
      "inputs": [
        {
          "indexed": false,
          "internalType": "address",
          "name": "sender",
          "type": "address"
        },
        {
          "indexed": false,
          "internalType": "address",
          "name": "receiver",
          "type": "address"
        },
        {
          "indexed": false,
          "internalType": "uint256",
          "name": "amount",
          "type": "uint256"
        },
        {
          "indexed": false,
          "internalType": "string",
          "name": "message",
          "type": "string"
        },
        {
          "indexed": false,
          "internalType": "uint256",
          "name": "timestamp",
          "type": "uint256"
        },
        {
          "indexed": false,
          "internalType": "string",
          "name": "keyword",
          "type": "string"
        }
      ],
      "name": "Transfer",
      "type": "event"
    },
    {
      "inputs": [
        {
          "internalType": "address payable",
          "name": "receiver",
          "type": "address"
        },
        {
          "internalType": "uint256",
          "name": "amount",
          "type": "uint256"
        },
        {
          "internalType": "string",
          "name": "message",
          "type": "string"
        },
        {
          "internalType": "string",
          "name": "keyword",
          "type": "string"
        }
      ],
      "name": "publishTransaction",
      "outputs": [],
      "stateMutability": "nonpayable",
      "type": "function"
    }
  ],
  "transactionHash": "0x5ef8726629d587f788aaac6d2439767b909ded427a0a7c1911bcbb32aebfb41a",
  "args": [],
  "numDeployments": 1,
  "solcInputHash": "6327390a344ce0e18d7d41a4cac437d2",
  "bytecode": "0x608060405234801561001057600080fd5b506104dc806100206000396000f3fe608060405234801561001057600080fd5b506004361061002b5760003560e01c80637d0ee35714610030575b600080fd5b61004a60048036038101906100459190610281565b61004c565b005b7f416cfa4330a4565f45c2fd2dd4826a83a37443aba2ce6f79477c7355afac35fa33858585428660405161008596959493929190610437565b60405180910390a150505050565b6000604051905090565b600080fd5b600080fd5b600073ffffffffffffffffffffffffffffffffffffffff82169050919050565b60006100d2826100a7565b9050919050565b6100e2816100c7565b81146100ed57600080fd5b50565b6000813590506100ff816100d9565b92915050565b6000819050919050565b61011881610105565b811461012357600080fd5b50565b6000813590506101358161010f565b92915050565b600080fd5b600080fd5b6000601f19601f8301169050919050565b7f4e487b7100000000000000000000000000000000000000000000000000000000600052604160045260246000fd5b61018e82610145565b810181811067ffffffffffffffff821117156101ad576101ac610156565b5b80604052505050565b60006101c0610093565b90506101cc8282610185565b919050565b600067ffffffffffffffff8211156101ec576101eb610156565b5b6101f582610145565b9050602081019050919050565b82818337600083830152505050565b600061022461021f846101d1565b6101b6565b9050828152602081018484840111156102405761023f610140565b5b61024b848285610202565b509392505050565b600082601f8301126102685761026761013b565b5b8135610278848260208601610211565b91505092915050565b6000806000806080858703121561029b5761029a61009d565b5b60006102a9878288016100f0565b94505060206102ba87828801610126565b935050604085013567ffffffffffffffff8111156102db576102da6100a2565b5b6102e787828801610253565b925050606085013567ffffffffffffffff811115610308576103076100a2565b5b61031487828801610253565b91505092959194509250565b600061032b826100a7565b9050919050565b61033b81610320565b82525050565b6000819050919050565b600061036661036161035c846100a7565b610341565b6100a7565b9050919050565b60006103788261034b565b9050919050565b600061038a8261036d565b9050919050565b61039a8161037f565b82525050565b6103a981610105565b82525050565b600081519050919050565b600082825260208201905092915050565b60005b838110156103e95780820151818401526020810190506103ce565b838111156103f8576000848401525b50505050565b6000610409826103af565b61041381856103ba565b93506104238185602086016103cb565b61042c81610145565b840191505092915050565b600060c08201905061044c6000830189610332565b6104596020830188610391565b61046660408301876103a0565b818103606083015261047881866103fe565b905061048760808301856103a0565b81810360a083015261049981846103fe565b905097965050505050505056fea264697066735822122003c0d71543b41caa757e8cb2691a6427aa360efdf294256ba36f79256de41ecb64736f6c63430008090033",
  "devdoc": {
    "kind": "dev",
    "methods": {},
    "version": 1
  },
  "userdoc": {
    "kind": "user",
    "methods": {},
    "version": 1
  },
  "storageLayout": {
    "storage": [],
    "types": null
  }
}